{
  "contractName": "Rating",
  "abi": [
    {
      "inputs": [
        {
          "internalType": "string[]",
          "name": "_moviesList",
          "type": "string[]"
        }
      ],
      "stateMutability": "nonpayable",
      "type": "constructor"
    },
    {
      "inputs": [
        {
          "internalType": "uint256",
          "name": "",
          "type": "uint256"
        }
      ],
      "name": "moviesList",
      "outputs": [
        {
          "internalType": "string",
          "name": "",
          "type": "string"
        }
      ],
      "stateMutability": "view",
      "type": "function",
      "constant": true
    },
    {
      "inputs": [
        {
          "internalType": "string",
          "name": "movieName",
          "type": "string"
        }
      ],
      "name": "addNewMovie",
      "outputs": [],
      "stateMutability": "nonpayable",
      "type": "function"
    },
    {
      "inputs": [
        {
          "internalType": "string",
          "name": "movieName",
          "type": "string"
        }
      ],
      "name": "totalVotesFor",
      "outputs": [
        {
          "internalType": "uint8",
          "name": "",
          "type": "uint8"
        }
      ],
      "stateMutability": "view",
      "type": "function",
      "constant": true
    },
    {
      "inputs": [
        {
          "internalType": "string",
          "name": "movieName",
          "type": "string"
        }
      ],
      "name": "voteForMovie",
      "outputs": [],
      "stateMutability": "nonpayable",
      "type": "function"
    }
  ],
  "bytecode": "0x60806040523480156200001157600080fd5b5060405162001152380380620011528339818101604052810190620000379190620003dd565b80600090805190602001906200004f92919062000057565b505062000760565b828054828255906000526020600020908101928215620000a4579160200282015b82811115620000a357825182908162000092919062000679565b509160200191906001019062000078565b5b509050620000b39190620000b7565b5090565b5b80821115620000db5760008181620000d19190620000df565b50600101620000b8565b5090565b508054620000ed9062000468565b6000825580601f1062000101575062000122565b601f01602090049060005260206000209081019062000121919062000125565b5b50565b5b808211156200014057600081600090555060010162000126565b5090565b6000604051905090565b600080fd5b600080fd5b600080fd5b6000601f19601f8301169050919050565b7f4e487b7100000000000000000000000000000000000000000000000000000000600052604160045260246000fd5b620001a8826200015d565b810181811067ffffffffffffffff82111715620001ca57620001c96200016e565b5b80604052505050565b6000620001df62000144565b9050620001ed82826200019d565b919050565b600067ffffffffffffffff82111562000210576200020f6200016e565b5b602082029050602081019050919050565b600080fd5b600080fd5b600067ffffffffffffffff8211156200024957620002486200016e565b5b62000254826200015d565b9050602081019050919050565b60005b838110156200028157808201518184015260208101905062000264565b8381111562000291576000848401525b50505050565b6000620002ae620002a8846200022b565b620001d3565b905082815260208101848484011115620002cd57620002cc62000226565b5b620002da84828562000261565b509392505050565b600082601f830112620002fa57620002f962000158565b5b81516200030c84826020860162000297565b91505092915050565b60006200032c6200032684620001f2565b620001d3565b9050808382526020820190506020840283018581111562000352576200035162000221565b5b835b81811015620003a057805167ffffffffffffffff8111156200037b576200037a62000158565b5b8086016200038a8982620002e2565b8552602085019450505060208101905062000354565b5050509392505050565b600082601f830112620003c257620003c162000158565b5b8151620003d484826020860162000315565b91505092915050565b600060208284031215620003f657620003f56200014e565b5b600082015167ffffffffffffffff81111562000417576200041662000153565b5b6200042584828501620003aa565b91505092915050565b600081519050919050565b7f4e487b7100000000000000000000000000000000000000000000000000000000600052602260045260246000fd5b600060028204905060018216806200048157607f821691505b60208210810362000497576200049662000439565b5b50919050565b60008190508160005260206000209050919050565b60006020601f8301049050919050565b600082821b905092915050565b600060088302620005017fffffffffffffffffffffffffffffffffffffffffffffffffffffffffffffffff82620004c2565b6200050d8683620004c2565b95508019841693508086168417925050509392505050565b6000819050919050565b6000819050919050565b60006200055a620005546200054e8462000525565b6200052f565b62000525565b9050919050565b6000819050919050565b620005768362000539565b6200058e620005858262000561565b848454620004cf565b825550505050565b600090565b620005a562000596565b620005b28184846200056b565b505050565b5b81811015620005da57620005ce6000826200059b565b600181019050620005b8565b5050565b601f8211156200062957620005f3816200049d565b620005fe84620004b2565b810160208510156200060e578190505b620006266200061d85620004b2565b830182620005b7565b50505b505050565b600082821c905092915050565b60006200064e600019846008026200062e565b1980831691505092915050565b60006200066983836200063b565b9150826002028217905092915050565b62000684826200042e565b67ffffffffffffffff811115620006a0576200069f6200016e565b5b620006ac825462000468565b620006b9828285620005de565b600060209050601f831160018114620006f15760008415620006dc578287015190505b620006e885826200065b565b86555062000758565b601f19841662000701866200049d565b60005b828110156200072b5784890151825560018201915060208501945060208101905062000704565b868310156200074b578489015162000747601f8916826200063b565b8355505b6001600288020188555050505b505050505050565b6109e280620007706000396000f3fe608060405234801561001057600080fd5b506004361061004c5760003560e01c806332e4cc57146100515780634a3bf3771461006d5780638cc975631461009d578063a06914ff146100cd575b600080fd5b61006b6004803603810190610066919061046f565b6100e9565b005b6100876004803603810190610082919061046f565b6101bc565b60405161009491906104d4565b60405180910390f35b6100b760048036038101906100b29190610525565b6101ee565b6040516100c491906105da565b60405180910390f35b6100e760048036038101906100e2919061046f565b61029a565b005b60006100f4826102ec565b90506002600082815260200190815260200160002060009054906101000a900460ff1615610157576040517f08c379a000000000000000000000000000000000000000000000000000000000815260040161014e90610648565b60405180910390fd5b60008290806001815401808255809150506001900390600052602060002001600090919091909150908161018b9190610874565b5060016002600083815260200190815260200160002060006101000a81548160ff0219169083151502179055505050565b6000600160006101cb846102ec565b815260200190815260200160002060009054906101000a900460ff169050919050565b600081815481106101fe57600080fd5b90600052602060002001600091509050805461021990610697565b80601f016020809104026020016040519081016040528092919081815260200182805461024590610697565b80156102925780601f1061026757610100808354040283529160200191610292565b820191906000526020600020905b81548152906001019060200180831161027557829003601f168201915b505050505081565b60018060006102a8846102ec565b815260200190815260200160002060008282829054906101000a900460ff166102d19190610975565b92506101000a81548160ff021916908360ff16021790555050565b6000808290506000815103610307576000801b915050610310565b60208301519150505b919050565b6000604051905090565b600080fd5b600080fd5b600080fd5b600080fd5b6000601f19601f8301169050919050565b7f4e487b7100000000000000000000000000000000000000000000000000000000600052604160045260246000fd5b61037c82610333565b810181811067ffffffffffffffff8211171561039b5761039a610344565b5b80604052505050565b60006103ae610315565b90506103ba8282610373565b919050565b600067ffffffffffffffff8211156103da576103d9610344565b5b6103e382610333565b9050602081019050919050565b82818337600083830152505050565b600061041261040d846103bf565b6103a4565b90508281526020810184848401111561042e5761042d61032e565b5b6104398482856103f0565b509392505050565b600082601f83011261045657610455610329565b5b81356104668482602086016103ff565b91505092915050565b6000602082840312156104855761048461031f565b5b600082013567ffffffffffffffff8111156104a3576104a2610324565b5b6104af84828501610441565b91505092915050565b600060ff82169050919050565b6104ce816104b8565b82525050565b60006020820190506104e960008301846104c5565b92915050565b6000819050919050565b610502816104ef565b811461050d57600080fd5b50565b60008135905061051f816104f9565b92915050565b60006020828403121561053b5761053a61031f565b5b600061054984828501610510565b91505092915050565b600081519050919050565b600082825260208201905092915050565b60005b8381101561058c578082015181840152602081019050610571565b8381111561059b576000848401525b50505050565b60006105ac82610552565b6105b6818561055d565b93506105c681856020860161056e565b6105cf81610333565b840191505092915050565b600060208201905081810360008301526105f481846105a1565b905092915050565b7f4d6f76696520616c726561647920657869737473210000000000000000000000600082015250565b600061063260158361055d565b915061063d826105fc565b602082019050919050565b6000602082019050818103600083015261066181610625565b9050919050565b7f4e487b7100000000000000000000000000000000000000000000000000000000600052602260045260246000fd5b600060028204905060018216806106af57607f821691505b6020821081036106c2576106c1610668565b5b50919050565b60008190508160005260206000209050919050565b60006020601f8301049050919050565b600082821b905092915050565b60006008830261072a7fffffffffffffffffffffffffffffffffffffffffffffffffffffffffffffffff826106ed565b61073486836106ed565b95508019841693508086168417925050509392505050565b6000819050919050565b600061077161076c610767846104ef565b61074c565b6104ef565b9050919050565b6000819050919050565b61078b83610756565b61079f61079782610778565b8484546106fa565b825550505050565b600090565b6107b46107a7565b6107bf818484610782565b505050565b5b818110156107e3576107d86000826107ac565b6001810190506107c5565b5050565b601f821115610828576107f9816106c8565b610802846106dd565b81016020851015610811578190505b61082561081d856106dd565b8301826107c4565b50505b505050565b600082821c905092915050565b600061084b6000198460080261082d565b1980831691505092915050565b6000610864838361083a565b9150826002028217905092915050565b61087d82610552565b67ffffffffffffffff81111561089657610895610344565b5b6108a08254610697565b6108ab8282856107e7565b600060209050601f8311600181146108de57600084156108cc578287015190505b6108d68582610858565b86555061093e565b601f1984166108ec866106c8565b60005b82811015610914578489015182556001820191506020850194506020810190506108ef565b86831015610931578489015161092d601f89168261083a565b8355505b6001600288020188555050505b505050505050565b7f4e487b7100000000000000000000000000000000000000000000000000000000600052601160045260246000fd5b6000610980826104b8565b915061098b836104b8565b92508260ff038211156109a1576109a0610946565b5b82820190509291505056fea2646970667358221220b15cb6b101cd1f553624747b60a566044e5b11f1e9c0f42bd8691a611dcfceab64736f6c634300080f0033",
  "immutableReferences": {},
  "source": "// SPDX-License-Identifier: MIT\r\npragma solidity >=0.4.22 <0.9.0;\r\npragma experimental ABIEncoderV2;\r\n\r\ncontract Rating {\r\n    // List of movie names\r\n    string[] public moviesList;\r\n\r\n    // This mapping keeps track of each movie rating. Note that the key is bytes32 type \r\n    mapping (bytes32 => uint8) private ratings;\r\n    // This mapping keeps track of movie names to ensure no duplicates \r\n    mapping (bytes32 => bool) private movies;\r\n  \r\n    constructor(string[] memory _moviesList) {\r\n        moviesList = _moviesList;\r\n    }\r\n\r\n    // Adds new movie to the moviesList. Need to check whether movie already exists before adding to the list\r\n    function addNewMovie(string memory movieName) public {\r\n        bytes32 movieNameInBytes32 = stringToBytes32(movieName);\r\n        require(!movies[movieNameInBytes32], \"Movie already exists!\");\r\n        moviesList.push(movieName);\r\n        movies[movieNameInBytes32] = true;\r\n    }\r\n\r\n    // Returns the total ratings a movie has received so far. Hint: need to convert movieName from string to bytes32\r\n    function totalVotesFor(string memory movieName) public view returns (uint8) {\r\n        return ratings[stringToBytes32(movieName)];\r\n    }\r\n\r\n    // Increments the vote count for the specified movie. Equivalent to upvoting. Hint: need to convert movieName from string to bytes32\r\n    function voteForMovie(string memory movieName) public {\r\n        ratings[stringToBytes32(movieName)] += 1;\r\n    }\r\n  \r\n    // Converts string to bytes32\r\n    function stringToBytes32(string memory source) private pure returns (bytes32 result) {\r\n        bytes memory tempEmptyStringTest = bytes(source);\r\n        if (tempEmptyStringTest.length == 0) {\r\n            return 0x0;\r\n        }\r\n    \r\n        assembly {\r\n            result := mload(add(source, 32))\r\n        }\r\n    }\r\n}",
  "sourcePath": "C:\\Users\\guarinof\\Documents\\pham-blockchain-version\\movieRatingApp\\rating\\contracts\\Rating.sol",
  "compiler": {
    "name": "solc",
    "version": "0.8.15+commit.e14f2714.Emscripten.clang"
  },
  "schemaVersion": "3.4.7",
  "updatedAt": "2022-07-13T14:13:50.524Z",
  "networkType": "ethereum",
  "devdoc": {
    "kind": "dev",
    "methods": {},
    "version": 1
  },
  "userdoc": {
    "kind": "user",
    "methods": {},
    "version": 1
  }
}